:020000040800F2
:10000000981300209D010008F35100088D3E000860
:10001000F1510008750A0008317300080000000063
:100020000000000000000000000000002B69000834
:10003000530E000800000000515300082D6900080D
:10004000B7010008B7010008B7010008B7010008B0
:10005000B7010008B7010008550E0008B7010008F5
:10006000B70100085B0E0008610E0008B701000828
:100070009D0A0008B7010008B7010008B701000891
:10008000B7010008B7010008B7010008850A000899
:10009000790A0008B7010008B7010008670E0008D8
:1000A000B7010008B7010008B7010008B701000850
:1000B000B70100080D6A0008196A0008B7010008B6
:1000C000B7010008B7010008B7010008B701000830
:1000D000B7010008B7010008617200086D720008DE
:1000E000B7010008B7010008B7010008B701000810
:1000F000B7010008B7010008B7010008B701000800
:10010000B7010008B7010008B7010008B7010008EF
:10011000B7010008B7010008B7010008B7010008DF
:10012000B7010008B7010008A90A00087D0D000802
:10013000B7010008B7010008B7010008B7010008BF
:10014000910A0008B7010008B7010008B7010008CC
:10015000890D0008B7010008950D0008B7010008D7
:10016000B7010008B7010008B7010008B70100088F
:10017000B7010008B7010008B7010008000000003F
:10018000B7010008B7010008DFF80CD000F03CFA16
:1001900000480047619300089813002006488047F4
:1001A00006480047FEE7FEE7FEE7FEE7FEE7FEE75C
:1001B000FEE7FEE7FEE7FEE7B569000889010008F3
:1001C0002DE9F05F0546002092469B46884606468C
:1001D000814640241BE0284641464746224600F01F
:1001E0001EF953465A46C01A914110D3114618467B
:1001F000224600F005F92D1A67EB01084F4622460A
:100200000120002100F0FCF817EB00094E41201EF0
:10021000A4F10104DFDC484631462A464346BDE8E6
:10022000F09F40EA01039B0703D009E008C9121FB1
:1002300008C0042AFAD203E011F8013B00F8013BA0
:10024000521EF9D27047D2B201E000F8012B491ECC
:10025000FBD270470022F6E710B513460A46044663
:100260001946FFF7F0FF204610BD2DE9FE4F81EA49
:10027000030404F0004421F0004100944FF0000B0F
:1002800023F0004350EA01045ED052EA03045BD03D
:10029000C3F30A54C1F30A552C44A4F2F334019475
:1002A000A0FB0254C1F3130141F48011C3F3130303
:1002B00043F4801301FB024400FB034E840A970AB7
:1002C00044EA815447EA8357A4FB076802958D0AE4
:1002D00005FB07854FEA932C04FB0C542705029D70
:1002E0004FEA065847EA1637B5EB08056EEB070CE0
:1002F000870E920E47EA811742EA8312A7FB02019A
:10030000B6EB0B0164EB00042B0D43EA0C335E18D3
:1003100044EB1C50DA465146E7FB0201C5F31304D7
:100320004FEA0B3343EA14534FEA0432019C43EA89
:100330000603A4F10C040294009CCDE900B400F083
:10034000C4F803B0BDE8F08F00200146F9E70EB510
:10035000C10F80EAE0700844CA07002140F233432D
:100360008DE80E000A460B4600F0AFF803B000BD62
:1003700000F0004230F000400AD0C10D01F560717C
:10038000C0F3160042EA0151C2084007114370470A
:10039000002001467047000030B5041E71F10004D2
:1003A00004DB4FF00044404264EB0101141E73F182
:1003B000000405DB1C464FF00043524263EB04038C
:1003C0008B4208BF824230BD01F0004330B421F0BF
:1003D000004150EA010206D00A0DA2F56072C1F395
:1003E0001301002A02DC30BC00207047440F44EAAD
:1003F000C104C100E01830BC00EBC25000F01FB8CF
:10040000202A04DB203A00FA02F1002070479140D4
:10041000C2F1200320FA03F3194390407047202AC9
:1004200004DB203A21FA02F00021704721FA02F39E
:10043000D040C2F12002914008431946704700297C
:10044000A8BF7047401C490008BF20F0010070475A
:1004500010B4B0FA80FC00FA0CF050EA010404BFBA
:1004600010BC704749B1CCF1200421FA04F411FA10
:100470000CF118BF012121430843A3EB0C01CB1D54
:100480004FEA00614FEA102042BF002010BC7047C5
:1004900000EBC35010440029A4BF10BC7047401C9F
:1004A000490008BF20F0010010BC704710B5141EB1
:1004B00073F1000408DA401C41F1000192185B411D
:1004C0001A4301D120F0010010BD2DE9F04D9246F4
:1004D0009B4611B1B1FA81F202E0B0FA80F220320B
:1004E0009046FFF78DFF04460F4640EA0A0041EAB6
:1004F0000B0153465A46084313D0114653EA0100F4
:1005000019D0C8F140025046FFF789FF05460E4654
:10051000504659464246FFF773FF084305D0012075
:1005200004E020463946BDE8F08D0020054346EA48
:10053000E0762C4337430A986305E40AA0EB0800F1
:100540000022FD0A44EA47540A3002D50020014641
:10055000E9E7010510196941DDE90845001969411C
:10056000BDE8F04DA2E72DE9F04D00231A461B1A15
:100570008A4103DB00200146BDE8F08DC1F30A5239
:10058000C1F3130141F480154FF0000BD10702D1E4
:1005900000186D41521E0027044640F2FF113846F4
:1005A00001EB620A3E468046024600204FF480116D
:1005B000FFF735FFC2197141BB1846EB0100B4EBE0
:1005C000030C75EB000C04D3E41A65EB0005174629
:1005D0000E46241908F101006D4180463428E3DD00
:1005E000F91946EB0600091BA84103D24FF0FF3270
:1005F000134601E0002213461BEB070046EB0A51AD
:10060000BDE8F04DFFF752BF064C074D06E0E0682D
:1006100040F0010394E8070098471034AC42F6D349
:10062000FFF7B6FD909C0008B09C000870B58C18D0
:1006300010F8015B15F0070301D110F8013B2A11F6
:1006400006D110F8012B03E010F8016B01F8016BE3
:100650005B1EF9D12B0705D40023521E0DD401F8DF
:10066000013BFAE710F8013BCB1A921C03E013F8A8
:10067000015B01F8015B521EF9D5A142D8D30020DD
:1006800070BD0000B7EE000A80ED000A9FED040A7D
:1006900080ED010A80ED020A80ED030A7047000038
:1006A000000000009FED053AD2EC031AB0EE434A79
:1006B000F0EE433A91EC030A04F0FEBA00000000A9
:1006C00001221021014801F09FBD000000000240FE
:1006D00000221021014801F097BD000000000240F7
:1006E0007047000001221146014801F08DBD000055
:1006F0000004024000220121014801F085BD0000F4
:100700000004024030B5437804781B021BB2234337
:1007100000EE103A194CB8EEC00AD4ED000A20EEF3
:10072000200A81ED000AC37885781B021BB22B4397
:1007300000EE103AD4ED000AB8EEC00A20EE200A0E
:1007400081ED010A437904791B021BB2234300EEB9
:10075000103AB8EEC00A20EE200ADFED090A81ED5A
:10076000020AD0F8060020F07F4000EE100AB8EE32
:10077000400A20EE200A82ED000A30BDE40200208B
:1007800000401C42704707F089BE07F0A1BE000080
:1007900010B542780378120212B21A4300EE102A02
:1007A000124BB8EEC00AD3ED010A20EE200A81ED0B
:1007B000000AC2788478120212B2224300EE102A94
:1007C000D3ED010AB8EEC00A20EE200A81ED010A3D
:1007D00042790079120212B2024300EE102AB8EEFA
:1007E000C00A20EE200A81ED020A10BDE4020020BA
:1007F00010B5FFF775FFFFF7C5FF07F021F908B146
:10080000802402E007F088F8044607F0E7FA10B108
:1008100044F0400010BD07F073FA204310BD000003
:100820002DE9FC410746002016460D460090019038
:10083000FFF74EFF922000F0BDF806226946122015
:1008400000F09AF8FFF73CFF9DF801009DF80010BA
:10085000000200B2084300EE100A464CB8EEC00A8F
:10086000D4ED000A20EE200A85ED000A9DF8030071
:100870009DF80210000200B2084300EE100AD4ED09
:10088000000AB8EEC00A20EE200A85ED010A9DF8A4
:1008900005009DF80410000200B2084300EE100AA3
:1008A000B8EEC00A20EE200A85ED020AFFF722FF0B
:1008B00008226946002000F05FF8FFF713FF9DF85B
:1008C00000000F2830D19DF803009DF802100002AF
:1008D00000B2084300EE100AD4ED010AB8EEC00AD7
:1008E00020EE200A87ED000A9DF805009DF804100F
:1008F000000200B2084300EE100AD4ED010AB8EE7F
:10090000C00A20EE200A87ED010A9DF807009DF835
:100910000610000200B2084300EE100AB8EEC00A4A
:1009200020EE200A87ED020AFFF7D2FEA22000F097
:1009300041F802226946222000F01EF8FFF7C0FEAF
:100940009DF800009DF80110C00040EA5110B0F57C
:10095000806F01DBA0F5006000EE100AB4EE001A13
:10096000F8EEC00AB3EE070A00EE810A86ED000A2F
:10097000BDE8FC81E402002070B514460D4640F04D
:10098000800000F017F806E0552000F013F8641E10
:1009900005F8010BE4B2002CF6D170BD10B50C4681
:1009A00040F0800000F006F8552000F003F82070B9
:1009B00010BD000001B582B04FF47A7000900123A1
:1009C00001AA02A9024802F001FC9DF804000EBD34
:1009D000C803002002784078D20042EA5010B0F5F7
:1009E000806F01DBA0F5006000EE100AB4EE001A83
:1009F000F8EEC00AB3EE070A00EE810A81ED000AA4
:100A0000704710B50C46FFF7D5FF2046BDE81040F3
:100A1000FFF7D0BF10B58AB00020012100900190EF
:100A200002900390CDE9051004900E2008910791E3
:100A3000099069460D4800F053FC0F200590694667
:100A40000B4800F04DFC0446084801F0DAF808486D
:100A500001F0D7F80221054800F0AEFB022104485E
:100A600000F0AAFB0AB0204610BD000024030020BD
:100A70004C030020FEE70000014800F07CBD0000B0
:100A800024030020014800F076BD0000240300206C
:100A9000014800F070BD00004C030020014801F047
:100AA000FBB80000A00700202DE9F05FAB48AC4B7D
:100AB000AC4CC06CAA4DAB4EA94F0068A849DFF8FA
:100AC000A492DFF89CA2DFF89CB2DFF894E2A54A7A
:100AD000483B603418351836303F09F178090AF17F
:100AE000300A4FF4006C0BF1300BAEF1180E884257
:100AF00023D99B49543926E0A84233D14FF020082E
:100B00000AE0504535D1E04606E000BF4FF400183A
:100B100002E000BF4FF0006811EA080F7CD0904956
:100B2000884253D9904205D0984203D0A04201D0C8
:100B3000A8422FD14FF0200C45E08A49A8318842C5
:100B400003D987495839096805E086494831884200
:100B50008549F8D949689042D0D09842CED0A04279
:100B6000CCD0C9E7B042CED0B842CCD04845CAD0EC
:100B7000C7E75845CAD07045C8D0DFF8E88108F10A
:100B800090084045C2D0DFF8D88108F148084045B8
:100B9000C0D1BBE7B04216D0B84214D0484512D0FD
:100BA000504510D0584509D0704507D06D49903157
:100BB000884203D06A494831884202D14FF4001C70
:100BC00001E04FF0006C66484C382AE06549A831D6
:100BD000884229D9904205D0984203D0A04201D042
:100BE000A84202D14FF0200C19E0B04217D0B84211
:100BF00015D0484513D0504511D0584509D07045FF
:100C000007D058499031884203D05549483188422D
:100C100003D14FF4001C02E09DE04FF0006C5048FF
:100C20005038C0F800C052E04E494831884227D9B8
:100C3000904205D0984203D0A04201D0A84202D1F0
:100C40004FF0200C18E0B04216D0B84214D04845FE
:100C500012D0504510D0584509D0704507D04149B1
:100C60009031884203D03E494831884202D14FF446
:100C7000001C01E04FF0006C3B48C0F80CC026E0BF
:100C8000904205D0984203D0A04201D0A84202D1A0
:100C90004FF0200C18E0B04216D0B84214D04845AE
:100CA00012D0504510D0584509D0704507D02D4975
:100CB0009031884203D02A494831884202D14FF40A
:100CC000001C01E04FF0006C2748C0F808C0274C1A
:100CD000207880070CD5207820F002002070207842
:100CE00040F00400207001221146214801F08CFAE6
:100CF0006078204D80070CD5607820F0020060708D
:100D0000607840F00400607001221021284601F054
:100D10007BFAA07880070CD5A07820F00200A070A4
:100D2000A07840F00400A07001221021284601F0B4
:100D30006BFA07F091FE207840070CD5207820F060
:100D400004002070207840F0080020700A480168F4
:100D500041F001010160BDE8F09F0000C8030020E0
:100D600058640240106002400060024038000020D9
:100D70000004024000000240103C0140014800F025
:100D80008BBF000080040020014800F085BF0000F8
:100D9000E0060020014800F07FBF0000400700206F
:100DA00001680A4BCAB2103AA3FB02321209084B7F
:100DB0009B5CC365032A04D96FF30901091D816592
:100DC00002E06FF309018165806D7047ABAAAAAAA2
:100DD0006E9C0008014600208A6A8B69002B0FD0A8
:100DE000B3F5005F1DD08AB3012A30D0022A2ED07D
:100DF000032A04D1C96A11F0807F00D00120704716
:100E00001AB1012A07D0022AF9D1C96A11F0807FEC
:100E1000F5D001207047C96AB1F1C07FFAD1012035
:100E200070475AB1012A0BD0022A07D0032AF7D102
:100E3000C96AB1F1C07FF3D101207047012070472A
:100E4000C96A11F0807FFAD001207047FFE70120C6
:100E500070477047012001F0BDB8082001F0BAB812
:100E6000102001F0B7B8202001F0B4B8704700009E
:100E70002F493048334AD1ED010AF6EE002AC0ED81
:100E8000510A91ED030AB0EE601A2F4BF8EEC01A2A
:100E90009FED290A9FED2D3A01EE801ADFED281A09
:100EA00080ED521AB1F9081001EE101A2349B8EE7C
:100EB000C11A80ED501A91ED002A82EE211A21EE1E
:100EC000001A80ED4D1A92ED022A22EE222A80EDC0
:100ED0004F2AD3ED012A00F5AA7082EE832A22EE72
:100EE000002A80ED512AB3F9083002EE103AB8EE2C
:100EF000C22A80ED502A91ED022AC2EE212ADFEDAE
:100F0000141A62EEA11AC0ED4D1AD2ED011AC0ED0D
:100F10004F1A1048017839B920EE800ADFED0E0A29
:100F200000EE601A80ED021A012101707047000086
:100F3000300800203C0A00200000B443440900208F
:100F4000D00FC940100900204008002000F8FF45DC
:100F50000000B4C3D80000200000003910B5484C90
:100F600094F8520110B9204607F08BFC94F8520116
:100F700001281ED194ED4C1A94ED4D0A414971EEB1
:100F8000400A10EE900ADFED400A884203DD31EEA0
:100F9000601A84ED4C1A31EE400A3C4910EE100AFA
:100FA000884203D931EE200A84ED4C0A344807F018
:100FB0004DFC94F85201022834D194ED4C1AD4ED32
:100FC000510A31EE600A10EE100A9FED310AB0F1BD
:100FD0008B4F03DD31EE401A84ED4C1A71EE601A2E
:100FE00011EE900A10F16A5F03D931EE000A84ED28
:100FF0004C0A234C04F1E40094ED4C0A04F0FAF896
:1010000094ED420A04F1980084ED4E0AD4ED500AA2
:1010100004F0F0F894ED2F0ABDEEC00A10EE100AAD
:10102000A4F850011B4C94F8520110B9204607F067
:1010300028FC94F85201012802D1164807F006FC5A
:1010400094F85201022819D1124C04F1E400D4EDB5
:10105000510A94ED4C0A04F0CDF894ED420A204672
:1010600084ED4E0AD4ED4F0A04F0C4F894ED090A59
:10107000BDEEC00A10EE100AA4F8500110BD000029
:101080003C0A0020000034430000B443000034C395
:1010900000000046900B002010B5174C6078002827
:1010A00029D007F0FFFB154A63780120A2F5AA7149
:1010B0005BB10024052B18D0022B09D0032B04D0E0
:1010C000042B0CD0012B10D013E081F8520109E061
:1010D0009FED0B0A81ED180A82ED180AF5E702234D
:1010E00081F8523182F8520103E081F8524182F8CE
:1010F000524181F8520110BDD8000020900B002011
:101100000000000010B506F095F9174902209FED88
:10111000170A487016480021012280ED4D0A80ED23
:101120004F0A80ED510A80ED500A80ED4C0A80EDA7
:101130004E0A80ED530AA0F8501180F8522100F5B4
:10114000AA7080ED4D0A80ED4F0A80ED510A80EDC6
:10115000500A80ED4C0A80ED4E0A80ED530AA0F84B
:10116000501180F8522110BDD8000020000000006E
:101170003C0A00200E4910B50C48096840884863B5
:10118000FFF776FEFFF788FF06F0D4F807F0B2FA13
:10119000FFF7E4FE074890ED1C0ABDE81040BDEEE5
:1011A000C00A10EE100A07F071B80000D800002045
:1011B000E0040020900B002090F82020012A07D0A6
:1011C000022A05D0416A41F4802141620120704722
:1011D00000684269114341610020704770B490F883
:1011E0002040D0F800C0DCF808C0012C08D0022C48
:1011F00006D0416A41F48021416270BC01207047F1
:101200000CF080640CF000652C4302D11CF0805F70
:101210005FD0CCF3016CBCF1020F06D9416A41F4F6
:101220000001416270BC01207047012404FA0CF4F3
:101230001C608B684FF4C0749BB1CD6804EB0C1636
:101240002B434D6843EAC5030568AB514FF4C273A5
:10125000066803EB0C130D69F550097D012909D0CF
:101260000DE00D88CB6804EB0C1643EA4553056886
:10127000AB51EBE70168CD5845F48075CD5011793D
:10128000D379557941EA036193791B0443EA052335
:1012900019434FF4C675036805EB0C1559511178C5
:1012A000D37841EA0361937852781B0443EA02221F
:1012B00011434FF4C473026803EB0C13D15001685F
:1012C00004EB0C100A5842F001020A5070BC0020D6
:1012D0007047416A41F40011416270BC01207047BF
:1012E00090F82020012A07D0022A05D0416A41F453
:1012F00080214162012070474248D0F8002242F02C
:101300000102C0F80022D0F8002222F47C52C0F87A
:101310000022D0F800224B6A42EA0322C0F80022E1
:101320000A7D012302F01F0203FA02F2D0F81C32F8
:101330009343C0F81C32CB69D3B9D0F80C32934335
:10134000C0F80C32B1F80CC04B686CF31F43D1F8F5
:1013500014C000EBCC0CCCF84032B1F808C00B68DC
:101360006CF31F43D1F814C000EBCC0CCCF8443222
:10137000CB69012B1AD1D0F80C321343C0F80C32D0
:10138000B1F800C04B686CF31F43D1F814C000EBF8
:10139000CC0CCCF84032B1F808C0CB686CF31F43DA
:1013A000D1F814C000EBCC0CCCF844328B697BB183
:1013B000D0F804321343C0F804320B6973B1D0F88B
:1013C00014321343C0F81432096A01290CD010E01A
:1013D000D0F804329343C0F80432EEE7D0F8143268
:1013E0009343C0F81432EFE7D0F81C121143C0F851
:1013F0001C12D0F8001221F00101C0F800120020E8
:101400007047000000640040704710B490F820C09E
:10141000BCF1010F09D0BCF1020F06D0416A41F4C2
:101420008021416210BC0120704739B1D0F800C062
:10143000DCF810C01CF0030F7DD006E0D0F800C02F
:10144000DCF80CC01CF0030F7BD04FF4D87C046890
:101450000CEB011C54F80C4004F004049460002CC4
:101460007DD0046854F80C40E4085460046854F8D3
:101470000CC0CCF3400CC2F80CC04FF4DA7C04680A
:101480000CEB011C54F80C4004F00F0414610468C8
:1014900054F80C40C4F307249461046854F80CC059
:1014A0004FEA1C4CC2F814C04FF4DC72D0F800C0F4
:1014B00002EB01125CF802C083F800C0D0F800C053
:1014C0005CF802C04FEA1C2C83F801C0D0F800C0C1
:1014D0005CF802C04FEA1C4C83F802C0D0F800C090
:1014E0005CF80220120EDA704FF4DE72D0F800C001
:1014F00002EB01125CF802C083F804C0D0F800C00F
:101500005CF802C04FEA1C2C83F805C0D0F800C07C
:101510005CF802C04FEA1C4C83F806C0D0F800C04B
:101520005CF80220120EDA71F9B10068016941F02D
:101530002001016102E00BE003E010E010BC00209C
:101540007047416A41F40011416210BC01207047AC
:10155000416A41F40011416210BC012070470468E7
:1015600054F80C40640D146080E70068C16841F0D5
:101570002001C160DEE72DE9F05F05460024286800
:101580004669D0F804908768D0F80CA0D0F810B065
:10159000D0F8188016F0010F54D017F0010F17D0B3
:1015A0000121816017F0020F03D0284600F05CFB98
:1015B0000EE017F0040F02D04FF4006408E017F0BB
:1015C000080F02D04FF4805402E0284600F04BFB95
:1015D00017F4807F19D029684FF48070886017F461
:1015E000007F03D0284600F041FB0EE017F4806F27
:1015F00002D044F4005408E017F4006F02D044F421
:10160000804402E0284600F030FB17F4803F19D0F8
:1016100029684FF48030886017F4003F03D02846D3
:1016200000F026FB0EE017F4802F02D044F40044B3
:1016300008E017F4002F02D044F4803402E028467A
:1016400000F015FB16F0080F07D01AF0100F04D0A9
:1016500044F4007429681020C86016F0040F4FF09D
:10166000080707D01AF0080F04D02868C76028467A
:1016700000F0D6F916F0020F07D02868C06810F005
:10168000030F02D0284600F0CDF916F0400F07D026
:101690001BF0100F04D044F4806429681020086106
:1016A00016F0200F07D01BF0080F04D02868076140
:1016B000284600F0A3FA16F0100F07D0286800693A
:1016C00010F0030F02D0284600F099FA16F4003FFC
:1016D00008D019F0100F05D029681020486028465E
:1016E00000F08EFA16F4803F07D019F0080F04D0EE
:1016F00028684760284600F0BCFA16F4004F4AD02C
:1017000019F0040F44D016F4807F04D018F0010FB4
:1017100001D044F0010416F4007F04D018F0020F49
:1017200001D044F0020416F4806F04D018F0040FC6
:1017300001D044F0040416F4006F29D018F0700FA3
:1017400026D008F07000402815D006DC102809D0FB
:1017500020280AD0302816D10AE050280ED0602860
:1017600011D10EE044F008040DE044F010040AE04A
:1017700044F0200407E044F0400404E044F0800416
:1017800001E044F480742868816921F0700181616E
:10179000296804204860002C05D0686A20436862EC
:1017A0002846FFF731FEBDE8F09F70B50446002CD7
:1017B00003D094F8200010B104E0012070BD204651
:1017C00000F0A8F82068016821F00201016000F033
:1017D00023FD0546206840684FF0050610F0020F13
:1017E00011D000F019FD401B0A2807D9606A40F4A7
:1017F0000030606284F82060012070BD206840687D
:1018000010F0020FEDD12068016841F00101016084
:1018100000F002FD05462068406810F0010F11D16C
:1018200000F0FAFC401B0A2807D9606A40F4003037
:10183000606284F82060012070BD2068406810F06C
:10184000010FEDD0207E01283FD02068016821F0F3
:1018500080010160607E01283DD02068016821F090
:1018600040010160A07E01283BD02068016821F082
:1018700020010160E07E012839D02068016841F034
:1018800010010160207F012837D02068016821F015
:1018900008010160607F012835D02068016821F0CF
:1018A00004010160E168A06862690843216911438D
:1018B00008436168491E08432168C86100206062CE
:1018C000012084F82000002070BD2068016841F0EC
:1018D00080010160BEE72068016841F040010160BD
:1018E000C0E72068016841F020010160C2E720687C
:1018F000016821F010010160C4E72068016841F02F
:1019000008010160C6E72068016841F00401016038
:10191000C8E70000F0B587B0044614216846FEF71A
:1019200099FC3A4B3A48DFF8E0E01968D4F800C077
:10193000374A03250226092710300024491CF445A4
:101940002AD11960012907D1016841F000710160B5
:10195000006800F000700590106840F0080010600A
:101960001068CDE9005600F00800CDE90470694622
:101970002848CDE9024500F039FB0022012113205F
:1019800000F0ECFF132000F0DBFF00220121142007
:1019900000F0E4FF142032E0DFF87CE0F44530D1C1
:1019A000D0F800C04CF0806CC0F800C0D0F800C087
:1019B00001290CF0806CCDF814C0196007D10168C2
:1019C00041F000710160006800F00070059010683F
:1019D00040F002001060106802AB00F002000590B9
:1019E0006020CDE9000683E8B00069460B4800F0AE
:1019F000FDFA00220121402000F0B0FF402000F05D
:101A00009FFF07B0F0BD0000006400400000002010
:101A100030380240000C02400068004000040240E0
:101A20007047000010B58AB0044600200790089067
:101A3000684807F073FC6848844259D107AB6A468E
:101A40000021FFF7E2FC0099A1F58071413918D01F
:101A5000624A6348C02936D0C1291FD0C2290ED19D
:101A6000BDF8200040BA03B2BDF81E0040BA02B271
:101A7000BDF81C0041BA5948B03005F05DF90AB014
:101A800010BD9DF81C00A828F9D15548BDF82010BC
:101A9000103801819DF81D108172F0E7BDF81C100F
:101AA00049BA00EE101AB8EE400A80ED010ABDF8FE
:101AB0001E1049BA09B200EE101A0181B8EEC00A30
:101AC00082ED010ADBE7BDF81C1049BA00EE101ADE
:101AD000B8EE400A80ED050ABDF81E1049BA09B2F9
:101AE00000EE101A0183B8EEC00A82ED170AC6E7AD
:101AF0003C488442C3D107AB6A460021FFF785FC0E
:101B0000009B0122384807A9102B52D00EDC062B6F
:101B100029D0092BB3D1BDF81C00344940BA087054
:101B2000BDF81E00324940BA0870A8E7122B49D010
:101B3000A3F50073053BA2D12948203890ED010A96
:101B4000BCEEC00A10EE101A0180BDF81C1049BA94
:101B50000181BDF81E1049BA00EE101AB8EE400A15
:101B600080ED010A8BE79DF81C100170BDF81D1077
:101B7000B2EE041A49BA8180BDF81F1049BAC1807B
:101B8000BDF8211049BA00EE101AF8EE400A80EEB6
:101B9000810A80ED020AD0ED030AF4EE400AF1EE6C
:101BA00010FA02D0C27080ED030A9DF82310417034
:101BB00065E782700F4A00200B5C1354401C082814
:101BC000FADB5CE70C4A00200B5C1354401C08282D
:101BD000FADB54E71808002024030020000D002041
:101BE000500800204C03002004000020D4000020F6
:101BF000D5000020C70200208C01002070477047EC
:101C0000704770B5044694F82000012805D0606A3A
:101C100040F400206062012070BD022084F82000A2
:101C20002068016821F00101016000F0F5FA054625
:101C30002068406810F0010F12D000F0EDFA401B50
:101C40000A2808D9606A40F400306062052084F8F0
:101C50002000012070BD2068406810F0010FECD119
:101C60000020606270BD70477047704770477047D2
:101C70007047704790F83510022903D080214165E4
:101C800001207047052180F835100068016821F0B7
:101C900001010160002070472DE9F84304464FF030
:101CA0000008CDF8008076484FF416510068B0FB6C
:101CB000F1F7A56D2E6894F85C00082101FA00F098
:101CC000304211D02068026812F0040F0CD0026874
:101CD00022F00402026094F85C0001FA00F0A860AF
:101CE000606D40F00100606594F85C004FF0010900
:101CF00009FA00F0304209D02168496911F0800FDB
:101D000004D0A860606D40F00200606594F85C103B
:101D100004208840304209D02168096811F0020F80
:101D200004D0A860606D40F00400606594F85C1019
:101D300010208840304224D02168096811F0080F33
:101D40001FD0A8602068016811F4802F0DD00068B2
:101D500010F4002F04D0A16C99B12046884710E000
:101D6000216C71B1204688470BE0016811F4807F37
:101D700003D1016821F008010160216C09B12046FE
:101D8000884794F85C1020208840304251D0216868
:101D9000096811F0100F4CD0A86094F835000528A0
:101DA0000DD02068016811F4802F32D0006810F443
:101DB000002F29D0E16B59B32046884739E02068CD
:101DC000016821F0160101602068416921F080015D
:101DD0004161206C08B9A06C20B12068016821F035
:101DE0000801016094F85C003F2101FA00F0A8604E
:101DF00084F8348084F83590216D00293ED001B0FC
:101E00002046BDE8F0430847616C09B12046884789
:101E10000FE0016811F4807F07D1016821F0100103
:101E2000016084F8348084F83590E16B09B1204674
:101E30008847606D002821D0606D10F0010F15D02B
:101E4000052084F835002068016821F00101016057
:101E50000098401C0090B84204D82068006810F038
:101E6000010FF5D184F8348084F83590E16C0029B5
:101E700004D001B02046BDE8F0430847BDE8F88330
:101E80001C0300202DE9F041044600F0C5F9054689
:101E9000DCB1002684F83460022084F83500206824
:101EA000016821F0010101602068006810F0010F55
:101EB00013D000F0B1F9401B052809D92020606536
:101EC000032084F83500BDE8F0810120BDE8F081F1
:101ED0002068006810F0010FEBD121680868234AE0
:101EE0001040A3686268D4F810C01A43E36843EA5C
:101EF0000C031A4363691A43A3691A43E3691A433B
:101F0000236A1A431043626A042A03D1236BE26AEC
:101F10001A43104308602068406920F00701606A96
:101F200040EA0105012704280ED1A06A0543E06AB2
:101F300050B12046FEF74EFF30B14020606584F876
:101F400035700120BDE8F081206845612046FEF72C
:101F500027FF94F85C103F2202FA01F18160666568
:101F600084F835700020BDE8F08100003F8010F05B
:101F70001649102817D020281ED0082825D1C87847
:101F800040F00100C870C87810F00100C8701CD083
:101F9000C87820F00100C870C87840F00200C8700E
:101FA0000B4806F0BBBE487840F0010048708878C6
:101FB00040F00100887003E0087840F001000870EC
:101FC0000879002801D006F047BD7047380000208E
:101FD0008409002010B504490A68024202D0086052
:101FE000FFF7C6FF10BD0000143C01402DE9F84F7B
:101FF0000022DFF80082DFF80092DFF800A24FF045
:10200000030E0F27012303FA02F50B682B40AB42A6
:102010007DD1D1F804C0BCF1020F02D0BCF1120F87
:1020200012D14FEAD20C00EB8C0CDCF82060540784
:10203000E40E07FA04FB26EA0B06D1F810B00BFAFF
:1020400004F43443CCF8204006684FEA420C0EFA00
:102050000CF4A64391F804B00BF0030B0BFA0CFB45
:102060004BEA060606604E68012E05D0022E03D00C
:10207000112E01D0122E11D18668A643D1F80CB0D2
:102080000BFA0CFB4BEA06068660466826EA050555
:102090000E79C6F30016964035434560C56825EABB
:1020A00004048D6805FA0CFC4CEA040CC0F80CC062
:1020B000D1F804C01CF0805F7DD0D8F800C04CF48B
:1020C000804CC8F800C0D8F800C00CF4804CCDF8A3
:1020D00000C022F0030C0CF1804404F59834D4F8CD
:1020E00008C895072D0F07FA05F62CEA0606A0F199
:1020F000804CBCF5003C64D0A0F1804CBCF5013CA8
:1021000062D0A0F1804CBCF5023C60D000E052E00F
:10211000A0F1804CBCF5033C5CD0A0F1804CBCF538
:10212000043C5AD0A0F1804CBCF5053C58D0A0F13D
:10213000804CBCF5063C56D0A0F1804CBCF5073C69
:1021400054D04FF0080C0CFA05FC4CEA060CC4F80D
:1021500008C8D9F800C02CEA030C4C6814F4803F7E
:1021600001D04CEA030CC9F800C0254CD4F800C0DB
:102170002CEA030C4D6815F4003F01D04CEA030C27
:10218000C4F800C0DAF800C02CEA030C4C6814F460
:10219000801F01D04CEA030CCAF800C0194CD4F8D7
:1021A00000C02CEA030C4D6815F4001F01D04CEA66
:1021B000030CC4F800C0521C102AFFF423AFBDE882
:1021C000F88F4FF0000CBEE74FF0010CBBE74FF06B
:1021D000020CB8E74FF0030CB5E74FF0040CB2E780
:1021E0004FF0050CAFE74FF0060CACE74FF0070CD3
:1021F000A9E7000044380240003C0140083C01408F
:10220000043C01400C3C0140002A01D08161704730
:102210000904816170470000014880687047000030
:102220001003002070B50446002C04D094F83D0043
:10223000002510B106E0012070BD84F83C50204616
:1022400000F0D6FA242084F83D002068016821F0CF
:102250000101016000F088FC544B6168994203D889
:102260005349884203D304E05249884201D20120F5
:1022700070BD5149B0FBF1F12268D2F804C02CF0D6
:102280003F0C4CEA010CC2F804C062689A4201D8C3
:102290004A1C07E04FF4967251434FF47A72B1FB37
:1022A000F2F14A1C2168D1F820C02CF03F0C42EA20
:1022B0000C020A626168994210D84900401EB0FBC6
:1022C000F1F2521CC2F30B02042A01D2042026E0D0
:1022D000B0FBF1F0401CC0F30B0020E0A268002A24
:1022E00050D001EBC10303EB0113A0F1010CBCFBC7
:1022F000F3F35B1C43F480431B051B0D4AD0002AFB
:102300004AD001EBC10202EB0111401EB0FBF1F01B
:10231000401CC0F30B0040F4804040F400402168B2
:10232000CA6922F0FF0222F44F421043C861216AB9
:10233000E06901432068026822F0C0021143016095
:10234000E168206901432068826822F0FF0222F4DC
:10235000034211438160A169606901432068C2683A
:1023600022F0FF021143C1602068016841F00101C1
:1023700001602564202084F83D00256384F83E50E8
:10238000002070BD01EB4103A0F1010CBCFBF3F395
:102390005B1CB1E70120C2E701EB4101401EB0FB2D
:1023A000F1F0401CC0F30B00B7E70000A08601006D
:1023B00080841E0000093D0040420F002DE9FF4FC0
:1023C00083B004468A469346DDF84490DDF84080A9
:1023D000129EFFF721FF054694F83D00202803D008
:1023E00007B00220BDE8F08F19230122A049204642
:1023F000009501F08DFE18B107B00220BDE8F08F06
:1024000094F83C00012808D0012084F83C002068A2
:10241000016811F0010F04D007E007B00220BDE809
:10242000F08F016841F0010101602068016821F42A
:1024300000610160222084F83D00402084F83E00C5
:1024400000272764C4F82480A4F82A90608D208592
:102450008848E062019500965A4651462046069B00
:1024600001F02EFD18B107B00120BDE8F08F208DDE
:1024700010B3012829D0022835D02068416980692D
:102480000290208D002800F0E880DFF8EC81208D9C
:10249000032800F2B780012834D002284AD03346FE
:1024A000002241462046009501F032FE00286CD003
:1024B00007B00120BDE8F08F206841698169029171
:1024C000016841F400710160DBE72068016821F4D4
:1024D000806101602068416981690291016841F46D
:1024E00000710160CDE72068016821F4806101601E
:1024F0002068016841F400610160206841698069D9
:102500000290BEE72A463146204601F0C2FE18B1CD
:1025100007B00120BDE8F08F20680069616A08708B
:10252000606A401C6062208D401E2085608D401EC8
:1025300060858EE03346002241462046009501F03A
:10254000E7FD18B107B00120BDE8F08F20680168F1
:1025500041F40071016020680069616A0870606A76
:10256000401C6062218D491E2185618D491E618557
:10257000216809690170606A401C6062208D401EFC
:102580002085608D401E608563E02068016821F42D
:102590008061016020680069616A0870606A401C9F
:1025A0006062208D401E2085608D401E6085334610
:1025B000002241462046009501F0AAFD18B107B05F
:1025C0000120BDE8F08F2068016841F400710160CE
:1025D00020680069616A0870606A401C6062218D31
:1025E000491E2185618D491E618521680969017037
:1025F000606A401C6062208D401E2085608D401EF8
:10260000608526E02A463146204601F042FE18B198
:1026100007B00120BDE8F08F20680069616A08708A
:10262000606A401C6062218D491E2185618D491EB2
:1026300061852268516911F0040F0AD01169017097
:10264000606A401C6062208D401E2085608D401EA7
:102650006085208D00287FF41AAF202084F83D008B
:1026600084F83E7084F83C7007B00020BDE8F08F1D
:10267000020010000000FFFF040001002DE9FF4FE1
:1026800083B004468A469346DDF84490DDF84080E6
:10269000129EFFF7C1FD054694F83D00202803D0A7
:1026A00007B00220BDE8F08F192301224E492046D1
:1026B000009501F02DFD18B107B00220BDE8F08FA4
:1026C00094F83C00012808D0012084F83C002068E0
:1026D000016811F0010F04D007E007B00220BDE847
:1026E000F08F016841F0010101602068016821F468
:1026F00000610160212084F83D00402084F83E0004
:1027000000272764C4F82480A4F82A90608D2085CF
:102710003648E062019500965A4651462046069B8F
:1027200001F068FC18B107B00120BDE8F08F208DE2
:10273000002836D02A463146204601F0E8FD58B13F
:10274000206C042804D12068016841F40071016004
:1027500007B00120BDE8F08F606A21680078086149
:10276000606A00F1010CC4F824C0208D401E80B2C4
:102770002085618D491E61852368596911F0040F18
:102780000CD058B19CF800001861606A401C60626F
:10279000208D401E2085608D401E6085208D002884
:1027A000C8D12A463146204601F084FC58B1206C3D
:1027B000042804D12068016841F40071016007B069
:1027C0000120BDE8F08F2068016841F400710160CC
:1027D000202084F83D0084F83E7084F83C7007B0F7
:1027E0000020BDE8F08F0000020010000000FFFF95
:1027F000F0B587B0044614216846FDF72BFD1A4951
:10280000206888422DD11948016841F00401016017
:10281000016801F004010591016841F001010160C6
:102820000068122400F0010005904FF400700125AB
:10283000032604278DE8F10069460D48FFF7D6FB13
:1028400028028DE8F10069460A48FFF7CFFB0748E8
:102850001030016841F400010160006800F40000DC
:10286000059007B0F0BD0000005C00403038024029
:1028700000080240000002400248816802781144CA
:10288000816070471003002010B50B48016841F4C7
:1028900000710160016841F480610160016841F4E8
:1028A00080710160032000F08DF8032000F006F82D
:1028B00000F026F8002010BD003C024070B5044630
:1028C0000D4D4FF47A712878B1FBF0F00B4909688F
:1028D000B1FBF0F000F076FD08B1012070BD102CC6
:1028E00007D200222146501E00F038F86C6000200C
:1028F00070BD012070BD0000100300201C030020EB
:102900000E4808B5016841F480410160006800F498
:10291000804000900948001F016841F0805101602B
:10292000006800F080500090052000F04BF8002275
:102930000321BDE80840481F00F010B844380240A9
:1029400000280ADB00F01F01012202FA01F1400910
:10295000800000F1E020C0F80011704710B4184B5F
:102960001B68C3F30223C3F1070CBCF1040F01D9A8
:102970004FF0040C1C1D072C01D2002300E0DB1ECD
:10298000012404FA0CFCACF1010C0CEA01019940A1
:1029900004FA03F35B1E1A401143002806DB00F122
:1029A000E020090180F8001410BC704700F00F000F
:1029B00000F1E020090180F8141D10BC70470000F0
:1029C0000CED00E000F00700064A11684FF6FF0327
:1029D000194041EA002040F0FD7040F08060106036
:1029E000704700000CED00E02DE9F04704460D466D
:1029F000002C13D0DFF85091D9F80000EFB200F0AE
:102A00000F00A8420DD289F80070D9F8000000F03C
:102A10000F00A84205D00120BDE8F0870120BDE8E5
:102A2000F0872068494E10F0020F14D010F0040F08
:102A300003D0306840F4E0503060207810F0080F88
:102A400003D0306840F4604030603068A16820F006
:102A5000F00008433060207810F0010F3ED060682D
:102A60003B49012808D002280DD003280BD0096863
:102A700011F0020F28D00AE0096811F4003F06D1D6
:102A80000120BDE8F087096811F0007F19D0316896
:102A900021F0030108433060FFF7BEFB8046306839
:102AA000616800F00C00B0EB810F17D041F2883A5A
:102AB000FFF7B2FBA0EB0800504508D90320BDE8A2
:102AC000F0870120BDE8F0870120BDE8F08730687D
:102AD000616800F00C00B0EB810FE9D1D9F800007B
:102AE00000F00F00A8420AD989F80070D9F8000058
:102AF00000F00F00A84202D00120BDE8F087207846
:102B000010F0040F05D03068E16820F4E05008436D
:102B10003060207810F0080F06D03068216920F46A
:102B2000604040EAC100306000F03EF83168094A78
:102B3000C1F30311515CC840074908600320FFF747
:102B4000BDFE0020BDE8F087003C0240083802408E
:102B500000380240769C00081C03002001480068F1
:102B6000704700001C03002000B5FFF7F7FF044981
:102B70000968044AC1F38221515CC84000BD0000CD
:102B800008380240869C000800B5FFF7E7FF0449BB
:102B90000968044AC1F34231515CC84000BD0000DD
:102BA00008380240869C000810B51748006810F0ED
:102BB0000C01164816D0164B042912D0082911D141
:102BC000144C216801F03F02216811F4800F0AD0F3
:102BD0002068C0F38810A0FB03010023FDF7F0FA82
:102BE00009E0184610BD21680023C1F38811A1FB3C
:102BF0000001FDF7E5FA2168C1F30141491C4900D4
:102C0000B0FBF1F010BD0000083802400024F400D1
:102C1000001BB700043802402DE9F84F0446002C91
:102C200010D02078FA4D10F0010F64D0F9480168F7
:102C300001F00C0104290DD0006800F00C000828F8
:102C400003D011E00120BDE8F88FF348006810F4CC
:102C5000800F09D0286810F4003F4CD0606800282D
:102C600049D10120BDE8F88F6068B0F5803F14D0ED
:102C7000B0F5A02F16D0286820F48030286028688E
:102C800020F480202860606810B3FFF7C5FA06467C
:102C9000286810F4003F0ED02DE0286840F4803002
:102CA0002860F0E7286840F480202860286840F415
:102CB00080302860E7E7FFF7AFFA801B642802D96D
:102CC0000320BDE8F88F286810F4003FF3D012E02D
:102CD000FFF7A2FA0646286810F4003F0BD0FFF772
:102CE0009BFA801B642802D90320BDE8F88F28686E
:102CF00010F4003FF3D12078C84F10F0020F4FF0CE
:102D0000000856D0C348016811F00C0F15D00068B8
:102D100000F00C00082804D1BF48006810F4800FB0
:102D20000BD0E06878B301203860FFF775FA0646EB
:102D3000286810F0020F12D01DE0286810F0020F72
:102D400005D0E068012802D00120BDE8F88F28688E
:102D5000216920F0F80040EAC100286029E0FFF76F
:102D60005BFA801B022802D90320BDE8F88F28688F
:102D700010F0020FF3D02868216920F0F80040EA33
:102D8000C100286015E0FFE7C7F80080FFF744FAAC
:102D90000646286810F0020F0BD0FFF73DFA801BA3
:102DA000022802D90320BDE8F88F286810F0020F2E
:102DB000F3D1207810F0080F33D09948DFF86492EF
:102DC0006169B9B101210160FFF726FA0646D9F819
:102DD000000010F0020F24D1FFF71EFA801B02281A
:102DE00002D90320BDE8F88FD9F8000010F0020FD7
:102DF000F2D016E0C0F80080FFF70EFA0646D9F8C8
:102E0000000010F0020F0CD0FFF706FA801B02281A
:102E100002D90320BDE8F88FD9F8000010F0020FA6
:102E2000F2D1207810F0040F73D04FF00009DFF8D2
:102E3000F8A1DAF8000010F0805F0CD1DAF8000099
:102E400040F08050CAF80000DAF8000000F080502E
:102E500000904FF00109DFF8D4B1DBF8000010F466
:102E6000807F1AD1DBF8000040F48070CBF80000BE
:102E7000FFF7D2F90646DBF8000010F4807F0CD192
:102E8000FFF7CAF9801B022802D90320BDE8F88F9A
:102E9000DBF8000010F4807FF2D0A068DFF890B17A
:102EA000012818D005281DD0DBF8000020F0010013
:102EB000CBF80000DBF8000020F00400CBF80000A5
:102EC000A06838B3FFF7A8F90646DBF8000010F059
:102ED000020F14D03CE0DBF8000040F00100CBF81A
:102EE0000000EDE7DBF8000040F00400CBF8000044
:102EF000DBF8000040F00100CBF80000E0E7FFF74E
:102F00008BF9811B41F28830814204D90320BDE84E
:102F1000F88F26E005E0DBF8000010F0020FEED09D
:102F200016E0FFF779F90646DBF8000010F0020F13
:102F30000ED0FFF771F9811B41F28830814202D92E
:102F40000320BDE8F88FDBF8000010F0020FF0D18D
:102F5000B9F1010F05D1DAF8000020F08050CAF86D
:102F60000000A069E8B32B49096801F00C010829A9
:102F70006BD0022810D0C7F86080FFF74DF90446E7
:102F8000286810F0007F5ED0FFF746F9001B02288A
:102F900055D90320BDE8F88FC7F86080FFF73CF9EA
:102FA0000646286810F0007F0BD0FFF735F9801B2C
:102FB000022802D90320BDE8F88F286810F0007FAE
:102FC000F3D1216AE069A26A0843616A4FF0FF33D6
:102FD000890103EB520241EA0241084394F82C10A4
:102FE00000E030E040EA01610B48016001203866F2
:102FF000FFF712F90446286810F0007F23D1FFF78D
:103000000BF9001B022815D90320BDE8F88F1CE03E
:1030100000380240083802400438024000004742AD
:10302000800E474274380240403802400070004031
:1030300070380240286810F0007FE0D003E0286874
:1030400010F0007FA0D10020DFE70120DDE770B5A0
:103050000446002C05D00025A56294F8510010B15B
:1030600006E0012070BD84F85050204600F030F892
:10307000022084F851002068016821F040010160BD
:10308000A168606822690843E168114308436169E7
:103090000843218B01F400710843E1690843216A68
:1030A0000843A16A084321680860A069042101EA75
:1030B0001040616A0843216848602068C16921F4B2
:1030C0000061C1616565012084F85100002070BD78
:1030D0002DE9F04387B0064614216846FDF7BAF89B
:1030E00034493068884261D133480025016841F491
:1030F00080510160006800F4805005902E4814381B
:10310000016841F002010160016801F002010591CE
:10311000016841F0010101600068022400F0010033
:103120000590182001274FF003084FF005098DE89E
:10313000910369462148FEF759FF80208DE89103ED
:1031400069461F48FEF752FF1F4C1E484FF0C067EC
:103150002060C4E901754FF48068C4E903586561D3
:103160007812A561C4E9075020466562FEF78AFE21
:1031700008B1FDF77BFEF464A663134C114860347C
:103180001830E4E802074020A4E82101C00244F816
:103190001459A561C4E907500B4865626030FEF719
:1031A00071FE08B1FDF762FEB464A66307B0BDE826
:1031B000F083000000300140443802400004024027
:1031C0000000024040640240200400202DE9F84F36
:1031D00004460A9E8A4693461F4601254FF0000882
:1031E00094F8500001280ED0012084F85000FFF719
:1031F00013F8814694F85100616801280ED0B1F5AA
:10320000827F07D102E00220BDE8F88FA16809B9EA
:10321000042803D04FF0020800F0CBB8BAF1000F39
:103220001DD0BBF1000F1AD0380018D094F851000F
:10323000042802D0052084F8510000206065C4F8FD
:1032400038B0E787A787C4F830A0E786A786206450
:1032500060642068016811F0400F03D006E04FF071
:103260000108A6E0016841F040010160E068B0F5A6
:10327000006F05D06068002848D0012F46D07EE05E
:10328000606808B1012F3AD1206B21680088C860BE
:10329000206B801C2063E08E401EE0862FE02068BB
:1032A000816811F0020F0DD0E18E59B1012D09D1C5
:1032B000216B0988C160206B801C2063E08E401E5A
:1032C000E08600252068816811F0010F0BD0E18FA6
:1032D00049B1C068A16B0880A06B801CA063E08F1F
:1032E000401EE0870125FEF797FFA0EB0900B042E2
:1032F00005D3B6F1FF3F02D04FF0030859E0E08E4E
:103300000028CCD1E08F0028C9D13EE0206B216895
:1033100000780873206B401C2063E08E401EE0861E
:103320002DE02068816811F0020F0DD0E18E59B1B7
:10333000012D09D1216B09780173206B401C20639A
:10334000E08E401EE08600252068816811F0010FA4
:103350000BD0E18F49B1C068A16B0870A06B401C15
:10336000A063E08F401EE0870125FEF755FFA0EB2C
:103370000900B04202D3B6F1FF3F11D186B1E08E11
:103380000028CED1E08F0028CBD14A4631462046D6
:1033900003F046FA38B14FF001082020606508E0DC
:1033A0004FF0030805E0A06818B92068C16880687C
:1033B0000090012084F85100002084F8500040461D
:1033C000BDE8F88F401EB0F1807F01D30120704727
:1033D0004FF0E0214861044AF0201070002088611D
:1033E000072008610020704723ED00E07047704718
:1033F00090F83C20012A2CD0012280F83C20CA6899
:103400000023D1F808C022F4407242EA0C02D1F83D
:1034100004C022F4806242EA0C02D1F800C022F417
:10342000006242EA0C02D1F810C022F4805242EA53
:103430000C02D1F814C022F4005242EA0C02C9690D
:1034400022F4804211430268516480F83C3000202D
:1034500070470220704730B490F83C20012A1ED0FB
:10346000012480F83C40022280F83D200268D2F816
:1034700004C093682CF0700C0D6845EA0C0C23F026
:10348000800349681943C2F804C00268916080F85B
:103490003D40002180F83C1030BC0020704730BC1B
:1034A0000220704710B50446002C03D094F83D006C
:1034B00010B107E0012010BD002084F83C00204638
:1034C00000F00CF8022084F83D00211D206803F074
:1034D000A9FA012084F83D00002010BD08B501685C
:1034E0002548264A814207D1106840F0010010604B
:1034F000106800F0010032E02048214B001F994283
:103500000ED1016841F0020101600068002200F064
:103510000200009001211D20FFF720FA1D2010E07D
:10352000184B994211D1016841F004010160006813
:10353000002200F00400009011461E20FFF70EFA52
:103540001E20BDE80840FFF7FBB90F4B994208D198
:10355000016841F010010160006800F01000009067
:1035600008BD0A488142FBD1106840F40030106069
:10357000106800F40030F2E70000014044380240D7
:1035800000040040000800400010004000440140DA
:10359000022180F83D1001688A6802F00702062ABD
:1035A00003D00A6842F001020A60012180F83D1050
:1035B000002070470168CA6842F00102CA600068D2
:1035C000816801F00701062903D0016841F001017B
:1035D00001600020704770B5044694F83C00012853
:1035E00018D0012584F83C50022084F83D00206862
:1035F000826822F0770222F47F42826008685028B5
:1036000032D00EDC20284DD006DC00284AD010280D
:103610004DD147E0022070BD302843D0402846D12C
:1036200036E060282AD0702806D0B0F5805F3ED002
:10363000B0F5005F3BD10BE0CB684A688968206831
:1036400003F065FA2068816841F0770181602EE01F
:10365000CB684A688968206803F059FA2068816855
:1036600041F48041816022E0CA684968206803F023
:103670003DFB5021206803F055FA18E0CA684968FC
:10368000206803F046FB6021206803F04BFA0EE04F
:10369000CA684968206803F029FB4021206803F0CC
:1036A00041FA04E022680146104603F03BFA84F830
:1036B0003D50002084F83C0070BD704770B5044652
:1036C000206801694FF0000511F0020F17D0C168A2
:1036D00011F0020F13D0E91E01610120207720684C
:1036E000806910F0030F03D02046FFF7E6FF05E0E6
:1036F000204600F0E9F8204600F072F925772068AE
:10370000016911F0040F18D0C16811F0040F14D032
:103710006FF004010161022020772068806910F4B5
:10372000407F03D02046FFF7C8FF05E0204600F0A9
:10373000CBF8204600F054F925772068016911F094
:10374000080F18D0C16811F0080F14D06FF00801ED
:103750000161042020772068C06910F0030F03D0B6
:103760002046FFF7AAFF05E0204600F0ADF820460E
:1037700000F036F925772068016911F0100F18D094
:10378000C16811F0100F14D06FF010010161082012
:1037900020772068C06910F4407F03D02046FFF7EF
:1037A0008CFF05E0204600F08FF8204600F018F965
:1037B00025772068016911F0010F09D0C16811F067
:1037C000010F05D06FF001010161204600F02AF9D8
:1037D0002068016911F0800F09D0C16811F0800FD5
:1037E00005D06FF0800101612046FFF7FFFD2068E2
:1037F000016911F0400F09D0C16811F0400F05D0E8
:103800006FF040010161204600F06EF92068016907
:1038100011F0200F0BD0C16811F0200F07D06FF00E
:10382000200101612046BDE87040FFF7E0BD70BD9A
:1038300030B587B0044614216846FCF70BFD2468B8
:103840001B4D00221B4802210123AC4212D1046807
:1038500044F010040460006800F0100005900802B5
:103860008DE8070069461448CDE90323FEF7BEFB47
:1038700007B030BD114A9442FAD1026842F02002EA
:103880000260006800F02000059040208DE80B00E9
:103890000320CDE9031069460948FEF7A7FB094854
:1038A000FFF776FE0021074800F09BF8E0E70000F4
:1038B0000000014030380240001002400044014046
:1038C00000140240E0050020704770B504460D4624
:1038D00094F83C0001280DD0012684F83C600220B9
:1038E00084F83D0042B1042A1AD0082A2DD00C2AAF
:1038F00053D13EE0022070BD2946206803F01AF93A
:103900002068816941F0080181612068816921F0A6
:1039100004018161206881692A69114381613CE069
:103920002946206803F03EF92068816941F400616E
:1039300081612068816921F48061816120688169E9
:103940002A6941EA0221816127E02946206803F0C3
:1039500065F92068C16941F00801C1612068C16949
:1039600021F00401C1612068C1692A691143C16164
:1039700013E02946206803F08DF92068C16941F4FD
:103980000061C1612068C16921F48061C161206862
:10399000C1692A6941EA0221C16184F83D600020C1
:1039A00084F83C0070BD10B50446002C03D094F898
:1039B0003D0010B107E0012010BD002084F83C005C
:1039C000204600F00CF8022084F83D00211D2068FC
:1039D00003F028F8012084F83D00002010BD704756
:1039E000704710B504460122206803F081F8216871
:1039F000A1F18040B0F5803004D0A1F18040B0F555
:103A0000823003D1486C40F40040486420688168EB
:103A100001F00701062903D0016841F001010160AE
:103A2000002010BD2DE9F041074600682A49002515
:103A30002A4C4FF47A76884231D16068401C60602D
:103A400006F0DEF860680D2190FBF1F201FB120038
:103A500070B9206901280BD1FDF78CFB05F0C2FC81
:103A600006F004F804F0ECFA04F034FB05F0FAFC7C
:103A70006068072190FBF1F201FB120058B905F0D4
:103A800025FD04F0A7FC16480078012821D005F098
:103A900083FA05F015FA6068B04200DB65601149F1
:103AA0003868884213D1A068401CA060E0680A28EA
:103AB00001DD0120206100F009FDA068B04206DBB5
:103AC000A5602069002802D1E068401CE060BDE8E4
:103AD000F08105F0AFFDDEE700040040AC010020FE
:103AE00018000020000800407047704710B50446D9
:103AF00022681068D168526900F00F03002B0AD1C8
:103B000010F0200F07D011F0200F04D02046BDE8A0
:103B1000104003F082B9002B6BD002F0010301F4D6
:103B2000907C53EA0C0364D010F0010F06D011F41E
:103B3000807F03D0E36B43F00103E36310F0040FD5
:103B400006D012F0010F03D0E36B43F00203E363EE
:103B500010F0020F06D012F0010F03D0E36B43F018
:103B60000403E36310F0080F06D012F0010F03D036
:103B7000E26B42F00802E263E26B002A2ED010F002
:103B8000200F05D011F0200F02D0204603F045F998
:103B900020684069C0F38010E16B11F0080F00D17C
:103BA00008B3204603F01EF92068416911F0400F68
:103BB00015D0416921F040014161606B58B118494D
:103BC0000165606BFEF756F8002807D0606B016D49
:103BD000BDE8104008472046FFF787FF10BD20468C
:103BE000FFF783FF10BD2046FFF77FFF0020E06353
:103BF00010BD10F0800F07D011F0800F04D02046C8
:103C0000BDE8104003F0F8BA10F0400FF0D011F00A
:103C1000400FEDD02046BDE8104003F0F1B80000A1
:103C2000D56D000870B50446002C04D094F8390016
:103C3000002510B106E0012070BD84F83850204600
:103C400000F022F8242084F839002068C16821F4AB
:103C50000051C160204603F02FF92068016921F46A
:103C6000904101612068416921F02A014161206889
:103C7000C16841F40051C160E563202084F8390037
:103C800084F83A00002070BD2DE9F04F87B005465A
:103C900014216846FCF7DEFA7049D5F800C0704878
:103CA000022301260322072700244FF0006A4FF465
:103CB000806B8C4569D16A491431D1F800C04CF051
:103CC000100CC1F800C0096801F0100105910168ED
:103CD00041F002010160016801F0020105910168F3
:103CE00041F0010101600068CDE9026200F00100CD
:103CF00005908020CDE900039946904669460497D7
:103D00005848FEF773F97002CDE90009CDE9026861
:103D1000694604975448FEF769F9554E534857468B
:103D20003060C6E901A4C6E9034B74614FF400306A
:103D3000B461C6E90740D84630467462FEF7A2F87F
:103D400008B1FDF793F86E63B563494E4748603696
:103D50003030E6E802074020A6E81101800246F86C
:103D60001449B461C6E90740414874626030FEF707
:103D700089F808B1FDF77AF82E6300221146252054
:103D8000B563FEF7EBFD252024E03549DFF8E4803C
:103D90001031C44523D10C6844F400340C60096828
:103DA00001F400310591016841F0080101600068EB
:103DB000694600F00800059060208DE84900CDE9D3
:103DC00003272D48FEF712F9002201212620FEF7D5
:103DD000C5FD2620FEF7B4FD07B0BDE8F08FDFF883
:103DE0009C80C445F8D1D1F800C04CF4802CC1F8B7
:103DF00000C0096801F480210591016841F00401C7
:103E000001600068694600F0040005904FF44060CE
:103E10008DE84900CDE903271948FEF7E7F8144E6D
:103E20001848C0363060C6E901A4C6E9034B8015C6
:103E30007461C6E906400002C6E908043046FEF790
:103E400021F808B1FDF712F86E6300220121272046
:103E5000B563FEF783FD2720BCE70000001001409A
:103E600030380240000402400000024088640240F2
:103E7000E006002000440040000C024000480040E2
:103E8000000802402860024070477047FEE7016862
:103E90004A6912F4806F11D06FF480624A61002188
:103EA0000163202280F83D2080F83E10026C42F031
:103EB0000402026480F83C10012070470020704723
:103EC0002DE9F84F0446DDF828A00B9D0F469046DB
:103ED00099462068016841F48061016020680168AA
:103EE00041F480710160534600224FF001112046D9
:103EF000009500F00DF910B10120BDE8F88F2168A0
:103F000007F0FE000861DFF8E8B02B46524659463C
:103F1000204600F057F910B10120BDE8F88F206865
:103F20004169806900902A465146204600F0EFF929
:103F300050B1206C042804D12068016841F400715C
:103F400001600120BDE8F88F08F0FF06B9F1010F0C
:103F50000DD021684FEA182008612A4651462046B4
:103F600000F0D5F970B1206C042803D007E0206878
:103F7000066109E02068016841F4007101600120D8
:103F8000BDE8F88F206806612A465146204600F0B9
:103F9000BEF950B1206C042804D12068016841F4B6
:103FA000007101600120BDE8F88F2068016841F4CC
:103FB00080710160534600224FF0011120460095A8
:103FC00000F0A6F810B10120BDE8F88F2168F8B222
:103FD00040F0010008612B4652465946204600F049
:103FE000F1F810B10120BDE8F88F0020BDE8F88F8E
:103FF000020001002DE9F8430446DDF82090099FF6
:104000000D46164698462068016841F480710160AB
:104010004B4600224FF001112046009700F078F83F
:1040200010B10120BDE8F883216805F0FE000861A9
:104030003B464A461E49204600F0C4F810B1012014
:10404000BDE8F88320684169806900903A46494696
:10405000204600F05CF950B1206C042804D120689F
:10406000016841F4007101600120BDE8F883F5B2F8
:10407000B8F1010F0CD02168300A08613A46494670
:10408000204600F044F970B1206C042803D007E00A
:104090002068056109E02068016841F40071016051
:1040A0000120BDE8F883206805610020BDE8F883A1
:1040B0000200010070B504460D46164620684069AE
:1040C00010F0040F13D12046FFF7E1FE08B10120E4
:1040D00070BDB5F1FF3F05D0FEF79EF8801BA842EA
:1040E00007D835B12068406910F0040FEBD00020EC
:1040F00070BD00202063202184F83D1084F83E002C
:10410000216C41F02001216484F83C00012070BD45
:104110002DE9F0470446DDF820900D4617461E466F
:10412000C5F307482068B8F1010F22D0806925EA5D
:1041300000000004000C26D00020B84216D1B6F1D1
:10414000FF3F06D0FEF768F8A0EB0900B0421CD88C
:10415000DEB1B8F1010F28D02068806925EA00009F
:104160000004000C2CD00020B842E8D00020BDE8AC
:10417000F087406925EA00000004000C01D000200F
:10418000DBE70120D9E70120D7E7002020632021C9
:1041900084F83D1084F83E00216C41F02001216438
:1041A00084F83C000120BDE8F0872068406925EADA
:1041B00000000004000C01D00020D5E70120D3E767
:1041C0000120D1E72DE9F04704460D4616461F466B
:1041D000C5F307482068B8F1010F26D0806925EAA9
:1041E00000000004000C3AD04FF000094FF0200A04
:1041F0002068406910F4806F1ED02068016841F487
:104200000071016021686FF480604861C4F83090EB
:1042100084F83DA084F83E90206C40F004002064B7
:1042200084F83C900120BDE8F087406925EA000051
:104230000004000C13D0D7E7B6F1FF3F05D0FDF71F
:10424000EBFFC01BB0420DD866B1B8F1010F18D01A
:104250002068806925EA00000004000CC8D1002015
:10426000BDE8F087C4F8309084F83DA084F83E9013
:10427000206C40F02000206484F83C900120BDE8D0
:10428000F0872068406925EA00000004000CAFD1E7
:10429000E5E72DE9F04104460D46164620684069E1
:1042A00010F0400F22D100274FF02008206840690D
:1042B00010F0100F0FD021686FF0100048612763D5
:1042C00084F83D8084F83E70206C206484F83C7053
:1042D0000120BDE8F081FDF79FFF801BA84208D8B0
:1042E0003DB12068406910F0400FDFD00020BDE8EC
:1042F000F081276384F83D8084F83E70206C40F0A4
:104300002000206484F83C700120BDE8F08170B585
:1043100004460D4616462068406910F0800F13D100
:104320002046FFF7B4FD08B1012070BDB5F1FF3F95
:1043300005D0FDF771FF801BA84207D835B1206872
:10434000406910F0800FEBD0002070BD002020638A
:10435000202184F83D1084F83E00216C41F02001BA
:10436000216484F83C00012070BD000038B502E0F3
:10437000642004F093F8FCF73BFA0028F8D102E03F
:10438000642004F08BF804F089FC0028F8D1294A55
:10439000A2F11004211D101DFCF742FA264904F178
:1043A000640000F09FFF04F124052A1D211DA4F1E3
:1043B0002800FCF767F921491020C8610846FEF77C
:1043C00046FE08B1FCF752FD1D490822A1F1080084
:1043D00002F0AEF91A4901201C390871154B0095FD
:1043E000103BA3F13402A2F10C01A1F10C0004F086
:1043F000BDFA10495039A1F1180291ED000AA1F15E
:10440000240382ED000AA1F1300083ED000A80ED63
:10441000000A91ED010A82ED010A83ED010A80EDA7
:10442000010A91ED020A82ED020A83ED020A80ED93
:10443000020A38BD6C0900203C9C0008C80300201B
:104440005400002030B505461088154B0C4668B95D
:1044500003F10C0090ED000A83ED000A90ED010AD3
:1044600083ED010A90ED020A83ED020A0C490C4823
:10447000803904F055FA93ED000A84ED000A93EDBB
:10448000010A84ED010A93ED020A84ED020AB7EEF7
:10449000000A85ED000A85ED010A85ED020A30BDAE
:1044A00090090020084891ED000A80ED000AD1ED46
:1044B000010AC0ED010A91ED021A80ED021A0C38D2
:1044C00080EC030A704700009C090020F8B5634C9B
:1044D000634EE068401CE060192805DD96ED040A93
:1044E00004F03EFB0020E06020785D4D000705F100
:1044F000140508D5207820F0080020705748294678
:104500001D30FCF745F9607840070AD5607820F047
:1045100004006070524A311D2032A2F12A00FCF7DB
:10452000F1F8A07840070DD5A07820F00400A07025
:104530004B494A4810311230FCF74CFA96ED040A08
:1045400004F00EFB464B464CA3F134022434A2F196
:104550000C01A1F10C00009404F008FAA4F1880009
:10456000A0F10C0290ED000A00F10C0182ED000AAE
:10457000D1ED000A9FED3B1AC0ED000A00F12403C3
:1045800060EE811ADFED380A93ED002A40EE201A22
:104590009FED360A42EE001AC1ED001AD0ED011A65
:1045A000C2ED011A91ED012A80ED012A22EE012AC5
:1045B00001EEA02AD3ED011A01EE802A81ED012A35
:1045C000D0ED021AC2ED021A91ED022A80ED022A04
:1045D00022EE011A264801EEA01AD3ED020A00EEDF
:1045E000801A81ED021A96ED050A3146F0EEC00AF6
:1045F00010EE902ADFED1F0A824201DAB0EE600A67
:1046000081ED050A91ED060AB0EEC01A11EE102AEE
:10461000824201DAB0EE600A81ED060A91ED070AE6
:10462000B0EEC01A11EE102A824201DAB0EE600A32
:1046300081ED070A0A48231D321D29469FED0E0A07
:104640002838FCF72FF801B0054BBDE8F040103BCF
:104650001A1F111FA1F1100003F0F4BF3800002051
:104660005C0900205AF8F63F5D896EBFD5A9183B5A
:10467000CDCC4C3D000000006F12833A104810B5BD
:104680000E4901600321416000214FF480228160C6
:10469000C0E903124FF4E002426101760122427642
:1046A0008176C17601774177FDF77FF8002803D046
:1046B000BDE81040FCF7DABB10BD0000006400400C
:1046C00024030020104810B50E4901600321416009
:1046D00000214FF480228160C0E903124FF4E00210
:1046E00042610176012242768176C1760177417777
:1046F000FDF75BF8002803D0BDE81040FCF7B6BB1F
:1047000010BD0000006800404C0300201D4808B5A3
:10471000016841F400110160016801F40011009189
:10472000016841F4800101600068002200F480000B
:10473000009011460C20FEF711F90C20FEF700F94D
:10474000002211463A20FEF709F93A20FEF7F8F860
:10475000002211463B20FEF701F93B20FEF7F0F85E
:10476000002211464420FEF7F9F84420FEF7E8F84D
:10477000002211464620FEF7F1F8BDE80840462029
:10478000FEF7DEB8303802402DE9F04F87B0142133
:104790006846FBF75FFD62480026016841F00201B0
:1047A0000160016801F002010591016841F0010119
:1047B0000160016801F001010591016841F0080103
:1047C0000160016801F008010591016841F00401F0
:1047D0000160016801F004010591016841F0800168
:1047E0000160016801F080010591016841F040011C
:1047F0000160016801F040010591016841F020016C
:104800000160016801F020010591016841F010018B
:1048100001600068012200F01000DFF808A1140216
:10482000059021465046FDF7EFFCDFF8FC90012291
:1048300040214846FDF7E8FCDFF8F0B001221021E6
:104840005846FDF7E1FC4FF4006801224146384824
:10485000FDF7DAFC012211463648FDF7D5FC00943D
:1048600001240225694650460194CDE90245FDF731
:10487000BDFB4020CDE9000469464846CDE902452C
:10488000FDF7B4FB2C4F0920CDE9000769460294DF
:104890004846FDF7ABFB1020CDE9000469465846B9
:1048A000CDE90245FDF7A2FB3020CDE900076946BE
:1048B00002945046FDF79AFB009469461D48019406
:1048C000CDE90245FDF792FBCDF80080CDE9014628
:1048D000694617480396FDF789FB0022022106204E
:1048E000FEF73CF80620FEF72BF8002201210920F4
:1048F000FEF734F80920FEF723F8002201210A20F0
:10490000FEF72CF80A20FEF71BF8002201211720E1
:10491000FEF724F81720FEF713F807B0BDE8F08F74
:1049200030380240000802400018024000000240F7
:104930000010024000040240000011100D4810B5A4
:104940000B4901600C49416000214FF480428160B5
:10495000C0E9031241618161C1610162FDF762FC3E
:10496000002803D0BDE81040FCF780BA10BD00005D
:10497000005C004074030020801A0600104810B547
:104980000E4901604FF48271416000210222816072
:10499000C0E9031201224261520282613822C0E959
:1049A0000721416281620A21C162FEF750FB0028A3
:1049B00003D0BDE81040FCF759BA10BD00300140EB
:1049C000C803002010B588B01C216846FBF742FCE4
:1049D000144813490024C0E9001441F28731C0E9AA
:1049E000024104618461FEF75DFD08B1FCF73EFA07
:1049F0000C48FEF7D8FF08B1FCF738FA6020CDE983
:104A0000000402940022694606480494FEF75DFF04
:104A100008B1FCF72BFA0348FEF70AFF08B010BDF7
:104A200000440140E005002010B596B000240F942A
:104A300010941194129413941C2108A81494FBF759
:104A400009FC20216846FBF705FC2848264901603F
:104A5000A721C0E9011441F28731C0E90314446180
:104A60008461FEF71FFD08B1FCF700FA4FF4805097
:104A70000F900FA91D48FEF7AEFD08B1FCF7F6F93F
:104A80001A48FEF790FF08B1FCF7F0F9139413A948
:104A900016481494FEF7DFFC08B1FCF7E7F9602034
:104AA000CDE908040A940B940C940D94002208A9F3
:104AB0000E480E94FEF709FF08B1FCF7D7F90094F1
:104AC0004FF40050CDE904400294019403946946E8
:104AD00006480794FEF78CFC08B1FCF7C7F90348B9
:104AE000FEF7A6FE16B010BD00000140E004002055
:104AF00010B586B0002417480094019402940394E2
:104B0000049413490594016040F2E731C0E90114AF
:104B10005321C0E9031480218161FEF7C3FC08B171
:104B2000FCF7A4F94FF48050009069460948FEF75D
:104B300052FD08B1FCF79AF9049404A905480594BC
:104B4000FEF789FC002801D0FCF790F906B010BDF3
:104B5000000400402005002010B586B0002417484E
:104B60000094019402940394049413490594016001
:104B700040F2E731C0E901145321C0E90314846114
:104B8000FEF790FC08B1FCF771F94FF480500090EB
:104B900069460A48FEF71FFD08B1FCF767F904945F
:104BA00004A906480594FEF756FC002801D0FCF73E
:104BB0005DF906B010BD000000080040600500204F
:104BC0001CB500240F4800940D490194016040F287
:104BD0004731C0E9011440F2E7318461C160FEF75A
:104BE00061FC08B1FCF742F900946946054801945C
:104BF000FEF731FC002801D0FCF738F91CBD00009D
:104C000000100040A00500200C4810B50A490160C2
:104C10004FF4E1314160002181600C22C160C0E9A4
:104C200004128161C161FEF7FDFF002803D0BDE8D9
:104C30001040FCF71BB910BD0010014020060020F9
:104C40000C4810B50A4901600B49416000218160A0
:104C50000C22C160C0E904128161C161FEF7E2FF6C
:104C6000002803D0BDE81040FCF700B910BD0000DB
:104C70000044004060060020A08601000C4810B5EA
:104C80000A4901600B494160002181600C22C1602A
:104C9000C0E904128161C161FEF7C4FF002803D09E
:104CA000BDE81040FCF7E2B810BD0000004800402D
:104CB000A0060020A086010010B5B5EEC03A2DED8B
:104CC000108BF0EE419AB0EE60AAF0EE40AAF1EE41
:104CD00010FA84B0044616D1F5EEC03AF1EE10FA9F
:104CE00011D1B5EEC04AF1EE10FA0CD104B0B0EE1D
:104CF000691AF0EE4A0AB0EE6A0ABDEC108BBDE804
:104D0000104000F083B9F5EEC01AF1EE10FA09D1A7
:104D1000B5EEC02AF1EE10FA04D1F5EEC02AF1EE9C
:104D200010FA7CD021EEA10A02EE020A02EEA20ADB
:104D300003F056FF21EE80FA62EE00EA22EE80EAEE
:104D400023EE030A03EEA30A04EE040A03F048FF6D
:104D5000D4ED000A23EE009A63EE808A60EEA01A7A
:104D600024EE008AF0EE00FACDED031A94ED010A6C
:104D700094ED021AD4ED031A20EE80DA60EE81CAB7
:104D800020EEA12A61EE01DA60EE002A60EE010A4F
:104D900020EE21CAB6EE000A21EEA1BA30EE6D0A6D
:104DA00061EE21BA3CEE2C1A70EE4B1ACDED021AD0
:104DB00021EE890A70EEC21A70EE820ACDED011A58
:104DC00008EEA10A60EE890A08EE010AB6EE001AA2
:104DD00071EE621A20EE2F0A31EECB1ACDED001AD9
:104DE00020EE000A48EE810A3BEECD1A48EE010A99
:104DF00060EEAF0A00EEA00A10EE100AFBF7B8FA58
:104E000041EC100B02F01EFD51EC100BFBF7DCFA2D
:104E10003CEE6C0A00EE900A20EE091A00E08EE0EB
:104E20007BEE8D1AF6EE002A3CEE8C4A3DEE2B2AE4
:104E300008EEA11ADDED001A704931EEED3ADDED14
:104E4000031A71EEE21A08EE031A71EE8B3ADDEDE9
:104E5000021A21EE2F1A61EEA02ADDED011A61EE91
:104E6000A01A64EE200A41EE002A41EE021A41EE39
:104E7000030A2EEEA31A0EEE421A28EEA03A2FEEE7
:104E8000022A08EE613A0EEEC02A31EE031A2EEE27
:104E9000003A29EE210AD1ED011A0FEE633A68EECD
:104EA000223A08EEE20AF5EEC01A49EE603A32EE16
:104EB000000A73EE230AF1EE10FA2CDDD1ED011A8F
:104EC00091ED022A61EE812ADFED4D1A02EEA12A50
:104ED00081ED022A91ED012A62EE202A91ED032A4A
:104EE00002EEA12A81ED032A91ED012A62EE002A49
:104EF00091ED042A02EEA12A81ED042AD1ED021AD5
:104F00007AEEA1AAD1ED031A3AEE21AAD1ED041A44
:104F100079EEA19A07E0DFED3B1AC1ED021AC1ED6F
:104F2000031AC1ED041AD1ED001A41EE81AA91EDE8
:104F3000001A01EE20AAD1ED000A40EE809A9FED02
:104F4000320A94ED011A94ED022A6AEE800A2AEEE2
:104F5000003A69EE802A94ED030A61EE603AD4EDDE
:104F6000001A42EE433A40EE623A73EEA14A61EE15
:104F7000A03AC4ED004A42EE223A40EE433A33EE04
:104F8000814A61EE833A61EEA21A84ED014A41EE54
:104F9000623A41EE031A40EE203A42EE601A73EE96
:104FA000823A71EE800A24EEA40AC4ED023AC4EDFE
:104FB000030A04EE040A03EEA30A00EEA00A03F0BB
:104FC0000FFED4ED000A60EE800AC4ED000AD4EDB5
:104FD000010A60EE800AC4ED010AD4ED020A60EE17
:104FE000800AC4ED020AD4ED030A20EE800A84EDA3
:104FF000030A04B0BDEC108B10BD0000D0020020ED
:105000006F12833A000000006F12033AF5EEC01AE7
:10501000B0EE413AF0EE603AB0EE404AF1EE10FAEE
:1050200000B5024609D1B5EEC02AF1EE10FA04D15E
:10503000F5EEC02AF1EE10FA78D021EEA10A02EEC8
:10504000020A02EEA20A03F0CBFD21EE805A62EEC4
:10505000004A92ED011AD2ED030A22EE800AD2ED47
:10506000002A21EE202AD2ED021A22EE811A5C4893
:1050700002EEE12A01EEA01AF6EE001A52EEA21A92
:1050800040EEA01A60EE020A64EEA12A45EE610A23
:1050900040EE412A25EE010A90ED011A04EEC20A03
:1050A000B5EEC01AF1EE10FA2CDD90ED011AD0ED3C
:1050B000021A21EE222A9FED4B1A42EE011AC0ED90
:1050C000021AD0ED011A21EEA02AD0ED031A42EE09
:1050D000011AC0ED031AD0ED011A21EE802AD0ED9D
:1050E000041A42EE011AC0ED041A90ED021A34EED1
:1050F000014A90ED031A73EE813A90ED041A33EEF3
:10510000013A07E09FED381A80ED021A80ED031A8C
:1051100080ED041A90ED001A01EE224A90ED001A7B
:1051200041EE203AD0ED000A00EE803A9FED2F0AC2
:10513000D2ED021A24EE002A63EE802A23EE001A32
:1051400092EC020A92ED033A60EEC23A41EEE23A84
:1051500043EE413A73EE804A60EE023AC2ED004AF5
:1051600041EE813A43EE623A33EEA04A60EE223AD3
:1051700020EE010A82ED014A40EEC13A00EEA20A99
:1051800043EE023A01EEC20A73EEA13A70EE030A50
:1051900024EEA40AC2ED023AC2ED030A04EE040AA8
:1051A00003EEA30A00EEA00A03F01AFDD2ED000AF6
:1051B00060EE800AC2ED000AD2ED010A60EE800ABC
:1051C000C2ED010AD2ED020A60EE800AC2ED020AC7
:1051D000D2ED030A20EE800A82ED030A00BD000032
:1051E000D00200206F12833A000000006F12033AD1
:1051F000FEE77047DFED3A1AF0B390ED111A80ED3B
:10520000121A90ED101A80ED111A80ED060A30EE98
:10521000600AC0ED070A80ED100AD0ED050AB1EE74
:10522000602AB4EEC20AF1EE10FA06DDB4EEE00A2E
:10523000F1EE10FA01D2C0ED101A90ED000AD0ED97
:10524000100A60EE201AC0ED0A1A90ED0B0A90EDDC
:10525000012A02EE200A70EEC10A80ED0B0A90EDE1
:105260000E2A80ED0F2A90ED0D2A80ED0E2AC0ED5A
:105270000D0A90ED021A00E02EE021EE201A80EDDA
:105280000C1AD0ED040AB4EEE00AF1EE10FA06DCD6
:10529000F1EE600AB4EEE00AF1EE10FA01D2C0EDD0
:1052A0000B0A90ED0B0A31EE800A30EE010A80ED18
:1052B000090AD0ED030AB4EEE00AF1EE10FA06DCBA
:1052C000F1EE600AB4EEE00AF1EE10FA01D2C0EDA0
:1052D000090A90ED090A7047B0EE610A70470000B4
:1052E0000000000000282FD000292DD091ED000AE9
:1052F00080ED000A91ED010A80ED010A91ED020AAC
:1053000080ED020A91ED030A80ED030A91ED040A93
:1053100080ED040A91ED050A80ED050A9FED0B0A68
:1053200080ED0F0A80ED0E0A80ED0D0A80ED090A6E
:1053300080ED0C0A80ED0B0A80ED0A0A80ED120A5E
:1053400080ED110A80ED100A704700000000000097
:105350007047002801DC404200B2704770B5194C1C
:10536000B4F90000FFF7F5FF4FF42575A84217DCEC
:10537000B4F90200FFF7EDFFA84211DCB4F9040014
:10538000FFF7E7FFA8420BDCB4F90600FFF7E1FFE7
:10539000A84205DCA07A18B1E07A08B1002070BDFF
:1053A000002020806080A080E08020810221A17206
:1053B000E172A081E0812082A074E074A0820120CB
:1053C00070BD00007008002030B5144B1C68656982
:1053D00045F0400565611B68DC6844F01004DC6042
:1053E0000F4B1C68256825F0010525601C682568A1
:1053F000ED07F7D11D680B4CAC601C68E0601868C5
:105400000161186842601868016841F480210160F8
:105410001868016841F00101016030BDA00600205C
:10542000A00700200448004038B51B480168CA683E
:1054300022F40052CA60194A11680B6823F0010374
:105440000B6013682421596000680168416800916D
:10545000134C13684FF40011A34202D9104B4C3B7C
:1054600004E0104CA34203D90D4B503B196008E0F7
:105470000C4D0C4C603DB83CAB4201D9E16000E002
:10548000A160C16841F40051C1601068016841F039
:105490000101016038BD0000A0060020A007002027
:1054A00058640240B860024003480068C16821F4B3
:1054B0000051C16070470000A00600202DE9F74FA1
:1054C000F84981B00868026822F001020260F648DB
:1054D0000268136823F00103136003E00A6822F0F6
:1054E00001020A60EF4909680A68D207F6D103E0B1
:1054F000016821F001010160EB4800680168C907FB
:10550000F6D1EA48EA4AEB4BD0F84C90E84CE94D2A
:10551000E74EE84FDFF898E3DFF894C3D9F80000CE
:10552000E449483A603318341835303E78374FF440
:10553000006A0CF1300C704535D9884205D0904294
:1055400003D0984201D0A04201D1202026E0A842F9
:1055500005D0B04203D0B84201D0604501D15046D9
:105560001CE0DFF8508308F13008404511D0DFF827
:105570004083A8F1180840450BD0DFF8388308F1C4
:105580009008404505D0DFF8288308F148084045D9
:1055900002D14FF4001001E04FF00060DFF81083FB
:1055A000A8F14C083AE0DFF80C8308F1A808404560
:1055B00037D9884205D0904203D0984201D0A0420A
:1055C00001D1202026E0A84205D0B04203D0B84245
:1055D00001D0604501D150461CE0DFF8D88208F1C7
:1055E0003008404511D0DFF8C882A8F118084045BE
:1055F0000BD0DFF8C08208F19008404505D0DFF8F5
:10560000B08208F14808404502D14FF4001001E093
:105610004FF00060DFF89882A8F15008C8F8000049
:1056200074E0DFF8908208F14808404537D9884295
:1056300005D0904203D0984201D0A04201D1202051
:1056400026E0A84205D0B04203D0B84201D0604560
:1056500001D150461CE0DFF85C8208F1300840457B
:1056600011D0DFF84C82A8F1180840450BD0DFF8C4
:10567000448208F19008404505D0DFF8348208F1F3
:105680004808404502D14FF4001001E04FF000609F
:10569000DFF82082A8F11008C8F80C0036E0884234
:1056A00005D0904203D0984201D0A04201D12020E1
:1056B00026E0A84205D0B04203D0B84201D06045F0
:1056C00001D150461CE0DFF8EC8108F1300840457C
:1056D00011D0DFF8DC81A8F1180840450BD0DFF8C5
:1056E000D48108F19008404505D0DFF8C48108F165
:1056F0004808404502D14FF4001001E04FF000602F
:10570000DFF8B081A8F11008C8F80800D9F8000047
:105710004FF4806B704535D9884205D0904203D054
:10572000984201D0A04201D1102026E0A84205D025
:10573000B04203D0B84201D0604501D158461CE0C8
:10574000DFF8708108F13008404511D0DFF8608142
:10575000A8F1180840450BD0DFF8588108F19008EF
:10576000404505D0DFF8488108F14808404502D19E
:105770004FF4801001E04FF08060DFF83481A8F131
:105780004C083AE0DFF82C8108F1A808404537D9E9
:10579000884205D0904203D0984201D0A04201D166
:1057A000102026E0A84205D0B04203D0B84201D074
:1057B000604501D158461CE0DFF8F88008F1300858
:1057C000404511D0DFF8E880A8F1180840450BD01B
:1057D000DFF8E08008F19008404505D0DFF8D08080
:1057E00008F14808404502D14FF4801001E04FF025
:1057F0008060DFF8BC80A8F15008C8F800007AE0AB
:10580000DFF8B08008F14808404537D9884205D014
:10581000904203D0984201D0A04201D1102026E04E
:10582000A84205D0B04203D0B84201D0604501D1B2
:1058300058461CE0DFF87C8008F13008404511D064
:10584000DFF86C80A8F1180840450BD0DFF86480C1
:1058500008F19008404505D0DFF8548008F1480869
:10586000404502D14FF4801001E04FF08060DFF836
:105870004480A8F11008C8F80C003CE0884205D02C
:10588000904203D0984201D0A04201D110202CE0D8
:10589000A84205D0B04203D0B84201D060450BD138
:1058A000584622E02004002080040020C803002085
:1058B0005864024010600240DFF8688940450FD00C
:1058C000DFF8648940450BD0DFF8588908F160089B
:1058D000404505D0DFF8508908F16008404502D105
:1058E0004FF4801001E04FF08060DFF83889A8F1B4
:1058F0004008C8F80800D9F80000704532D988423D
:1059000005D0904203D0984201D0A04201D1082096
:1059100023E0A84205D0B04203D0B84201D0604590
:1059200002D14FF4007018E0DFF8F88840450FD03E
:10593000DFF8F48840450BD0DFF8E88808F160080C
:10594000404505D0DFF8E08808F16008404502D105
:105950004FF4002001E04FF00070DFF8CC88A8F190
:10596000340837E0DFF8BC8808F17808404534D9BE
:10597000884205D0904203D0984201D0A04201D184
:10598000082023E0A84205D0B04203D0B84201D09D
:10599000604502D14FF4007018E0DFF88888404578
:1059A0000FD0DFF8848840450BD0DFF8788808F105
:1059B0006008404505D0DFF8708808F16008404570
:1059C00002D14FF4002001E04FF00070DFF858885A
:1059D000A8F13808C8F800006EE0DFF8488808F140
:1059E0001808404534D9884205D0904203D09842E7
:1059F00001D0A04201D1082023E0A84205D0B04246
:105A000003D0B84201D0604502D14FF4007018E0D5
:105A1000DFF8108840450FD0DFF80C8840450BD0E8
:105A2000DFF8008808F16008404505D0DFF8F88706
:105A300008F16008404502D14FF4002001E04FF02A
:105A40000070DFF8E087A8F14008C8F80C0033E0E8
:105A5000884205D0904203D0984201D0A04201D1A3
:105A6000082023E0A84205D0B04203D0B84201D0BC
:105A7000604502D14FF4007018E0DFF8A887404578
:105A80000FD0DFF8A48740450BD0DFF8988708F1E6
:105A90006008404505D0DFF8908708F16008404570
:105AA00002D14FF4002001E04FF00070DFF874875E
:105AB000A8F14008C8F80800DFF86C87D9F80000A2
:105AC00008F118084FF4807E404531D9884205D04E
:105AD000904203D0984201D0A04201D1042022E09C
